:040000008A11FD2F35
:100E6E008A113E278A118A114A278A11372F831633
:100E7E00031386140611061240309400303083128C
:100E8E00031394000800831603138611861283122F
:100E9E000313861586128A113E278A118A11852719
:100EAE00080083120313A2007C08A0002008F000A3
:100EBE007D08A1002108F100F201F301220820387B
:100ECE008A11AA27080083120313A3002308A00087
:100EDE002008A500F001F1017C08A0002008F20016
:100EEE007D08A1002108F30025088A11AA27831284
:100EFE000313A2002208A40024080800293083123C
:100F0E000313A6002608FC00FD01FD0A00308A111D
:100F1E006A278A1183120313A7002708A800291D28
:100F2E00A62F2908FB39A6002608A9002930A600FD
:100F3E002608FC00FD01FD0A00308A115827831295
:100F4E00031386120800F600F801F9017108F40087
:100F5E007408FA007308F4007408FB007608831214
:100F6E00031393008611941683160313141CBB2FC0
:100F7E001410831203131308F4007408F700FA0810
:100F8E000319F52F7A080319D82F78087007F40083
:100F9E007408840083130008831293000130FA0250
:100FAE00DA2F8312930183160313141CDA2F7B0896
:100FBE000319F12F831203131308F4007908720733
:100FCE00F500750884007408831380000130FB025D
:100FDE0083160313831603131410C62FFB08031D69
:100FEE00C92F8312941286157708080083018A117F
:020FFE00372F8B
:04400E0029FFFCFF8B
:00000001FF
